:100000000C9451000C9479000C9479000C947900B4
:100010000C9479000C9479000C9479000C9479007C
:100020000C9479000C9479000C9479000C9479006C
:100030000C9479000C9479000C9479000C9479005C
:100040000C9479000C9479000C9479000C9479004C
:100050000C9479000C9479000C9479000C9479003C
:100060000C9479000C9479000C9479000C9479002C
:100070000C9479000C9479000C9479000C9479001C
:100080000C9479000C9479000C9479000C9479000C
:100090000C944C030C941E030C94F8020C947900FD
:1000A0002B0511241FBECFEFCDBFDFE3DEBF18E26B
:1000B000A0E0B8E2E5E7FDE002C005900D92A830AF
:1000C000B107D9F728E2A8E0B8E201C01D92A73B2A
:1000D000B207E1F710E0C1E5D0E004C02197FE01CE
:1000E0000E946906C035D107C9F70E94B0030C947D
:1000F0006F060C940000FC0154894589252F30E0DF
:10010000842F90E0821B930B541710F0CF96089524
:1001100001970895FC0192898389981761F0A3895A
:10012000AE0FBF2FB11D59968C9193899F5F9F731E
:10013000938B90E008958FEF9FEF0895FC019289D3
:100140008389981731F08389E80FF11D818D90E044
:1001500008958FEF9FEF0895FC0192892389892FDD
:1001600090E0805C9F4F821B91098F7399270895BF
:10017000CF93DF93EC01E881F9810284F385E02DD0
:100180000995EC85FD8586818F738683EC85FD85D9
:1001900085818F7585838B898A8B198ADF91CF91B1
:1001A0000895CF93DF93FC0194898589C485D58513
:1001B000981306C08D818F7D8D83DF91CF91089537
:1001C000A589AE0FBF2FB11DA75ABF4F2C918589AE
:1001D00090E001968F739927858B80E48C83A485AA
:1001E000B58512962C93948985899813E6CFA485BA
:1001F000B58515968C9115978F7D15968C9387896B
:100200008823D9F2808D80931301178AD6CFDC0121
:100210001C96ED91FC910FB607FE03C0258125FDCC
:1002200004C0248125FD0C94D1000895EF92FF9223
:100230000F931F93CF93DF93EC0181E0898B9C890F
:100240008D8998131CC0AC85BD8514968C9114972C
:1002500085FF15C012966C93AC85BD8580E414961D
:100260008C93EC85FD8585818F7D858381E090E091
:10027000DF91CF911F910F91FF90EF9008958091A2
:10028000110180FF08C080911301888F8E898093AF
:10029000130181E08F8BF62E0C8910E00F5F1F4F4A
:1002A0000F731127E02E8D898E1104C0CE010E949C
:1002B0000701F9CFEC89EC0FFD2FF11DE75AFF4F35
:1002C000F0820C8BEC85FD8585818062CECFCF934B
:1002D000DF93FC0121892223C9F0EC0180911101F7
:1002E00080FF08C080911301808F8689809313015D
:1002F00081E0878BEC85FD85858185FD03C0848148
:1003000086FD04C0CE010E940701F4CFDF91CF919A
:1003100008958EE198E20E94AC0021E0892B09F457
:1003200020E0822F089580E090E0892B29F00E9440
:10033000890181110E94000080E090E0892B49F042
:1003400080E090E0892B29F00E94000081110C943C
:1003500000000895AF92BF92CF92DF92EF92FF928A
:100360000F931F93CF93DF936C017B018B01040FDD
:10037000151FEB015E01AE18BF08C017D10759F079
:100380006991D601ED91FC910190F081E02DC601BB
:100390000995892B79F7C501DF91CF911F910F91B5
:1003A000FF90EF90DF90CF90BF90AF90089581E0E5
:1003B0000895282F30E0F901E65BF24B40814F3F72
:1003C00009F44EC08B3258F4F901EE51F34BE08141
:1003D000EE2329F0E13099F010F0E63010F1F90148
:1003E000E05DF24BE081A0E2EA9FF0011124FC5FA6
:1003F0008081842311F1672BF1F446830895E09105
:10040000010AD901AA5EB24B5C915C5F81E090E089
:1004100001C0880F5A95EAF780958E238093010AD0
:10042000DECF80E1E89FF0011124E05AF54F818191
:100430008F7E8183D4CF458308952A5E324BD901C4
:100440008C91309771F08F3F61F07096E80FF11D3D
:100450009FB7F8948081672B39F4877F80839FBF93
:100460000895F0E0E0E0F4CF8860F8CFCF92DF921B
:10047000EF92FF920F931F93CF93DF93EC016A01EA
:100480007B01022F8989882339F0E881F98100886E
:10049000F189E02DCE01099598898091E205892B9B
:1004A0008093E2051FB7F89460E070E281EA97E07C
:1004B000A70196010E94240669017A018FEFC81AEC
:1004C000D80AE80AF80AF694E794D794C794EC851A
:1004D000FD8586818D7F8683EC85FD85868186837B
:1004E000198AA09123110A2E000CBB0BA7019601BB
:1004F0000E941C0620E034E040E050E00E94F2053B
:10050000EC85FD85C20ED31EE41EF51EC086D18685
:10051000EC85FD850783EC85FD858681806C86836F
:10052000EC85FD858581806885838E858B3228F5F5
:1005300090E0FC01E65BF24B20812F3FF1F0FC01E3
:10054000E05DF24BA081E0E2AE9FD0011124BC5FE0
:100550008A5E924BFC013081F0E0E0E03F3F29F001
:10056000CD014096FC01E30FF11D9FB7F894129660
:100570002C938081886080839FBF8F858B3220F48D
:1005800061E070E00E94D9018F858B3288F490E0A1
:10059000FC01E65BF24B20812F3F51F0805D924BD6
:1005A000DC01EC91B0E2EB9FF0011124FC5F2183B0
:1005B0001FBFDF91CF911F910F91FF90EF90DF90C0
:1005C000CF900895DC01ED91FC910684F785E02D34
:1005D00023E030E00994FC0101900020E9F7319715
:1005E000AF01481B590BBC018EE198E20C94AA01A3
:1005F0001F920F920FB60F9211242F933F934F9398
:100600005F936F937F938F939F93AF93BF93EF937A
:10061000FF938EE198E20E94D100FF91EF91BF918C
:10062000AF919F918F917F916F915F914F913F918A
:100630002F910F900FBE0F901F9018951F920F9241
:100640000FB60F9211242F938F939F93EF93FF93E5
:10065000E0912A28F0912B28818181FD1BC0908197
:10066000809130288F5F8F7320913128821741F05D
:10067000E0913028F0E0E25EF74D918F80933028D2
:10068000FF91EF919F918F912F910F900FBE0F903F
:100690001F9018958081F4CF1F920F920FB60F9282
:1006A00011242F933F934F935F936F937F938F9377
:1006B0009F93AF93BF934091162850911728609154
:1006C00018287091192880910C2890910D2820915C
:1006D000102830911128420F531F611D711D209168
:1006E0000E2830910F28820F931F883E23E0920737
:1006F00030F0885E93404F5F5F4F6F4F7F4F809326
:100700000C2890930D284093162850931728609337
:100710001828709319288091082890910928A09191
:100720000A28B0910B280196A11DB11D80930828BD
:1007300090930928A0930A28B0930B2881E0809316
:10074000B60ABF91AF919F918F917F916F915F9109
:100750004F913F912F910F900FBE0F901F901895C2
:10076000CF93DF93CDB7DEB7A597CDBFDEBF88EDC2
:1007700090E084BF9093610080E094E2A4EFB0E049
:100780008093002890930128A0930228B093032817
:100790008091020686608093020680910006816047
:1007A00080930006809102068F7C809302068091E0
:1007B000A0008F788093A0008091020680618093D2
:1007C00002061092E20581E08093E40583E08093C5
:1007D000010A8FEF90E08093260A9093270A80E821
:1007E00090E08093380A9093390A80933A0A909364
:1007F0003B0A80933C0A90933D0A8BE08093000A69
:100800008091E50581608093E5058091E505826032
:100810008093E505E0E8FAE037E02FEF90E885E027
:1008200031832487958780837096E03C4AE0F40703
:10083000B9F780E094E08093142890931528809174
:100840001428909115282FEF30E0B9010E94550629
:100850006093122870931328809114289091152882
:10086000E8EEF3E0BF010E945506609310287093F4
:1008700011288091142890911528BF010E945506D7
:1008800080930E2890930F282093BC0A3093BD0AC2
:100890008091B50A81608093B50A94E09093B00A84
:1008A0008091B00A81608093B00A7894909381041B
:1008B00070E060E08DE00E94D9018FEF9FEFDC01D6
:1008C0008093222890932328A0932428B09325284E
:1008D00040E452E46FE070E08EE198E20E94E202B0
:1008E00084E69DE40E94EB0282E79DE40E94EB0215
:1008F0008E010E5D1F4F7E0186E2E80EF11C2FB7C0
:10090000F8948091162890911728A0911828B091FA
:1009100019282FBF8093262890932728A093282852
:10092000B09329288EE198E20E948A0097FF8BC03D
:100930002FB7F8948091162890911728A091182825
:10094000B09119282FBF40912628509127286091F7
:10095000282870912928841B950BA60BB70B409172
:1009600022285091232860912428709125288417EB
:100970009507A607B707B0F261E070E08DE00E942E
:10098000D9016AA17BA176276727762790E080E0CE
:10099000982F872F762F66272CA1622B982F872FD1
:1009A000762F66272DA1622B4FB7F8940091162859
:1009B0001091172820911828309119284FBF601BDB
:1009C000710B820B930B60931A2870931B288093F2
:1009D0001C2890931D28611571058105910511F062
:1009E0000E94E90520911A2830911B2840911C286B
:1009F00050911D2819A28E010F5D1F4F8AE0C82E4D
:100A0000D12CE12CF12CCA01B901A70196010E9459
:100A10002406605DF80162938F01211531054105BF
:100A2000510589F7309719F0CF010E94EB0282E758
:100A30009DE40E94EB0261E070E08DE00E94D9012C
:100A40000E949301FDCFF80181938F01EE16FF06FE
:100A500009F055CF91CFEEE1F8E21282138288EED1
:100A600093E0A0E0B0E084839583A683B78380E021
:100A70009DE48083918380E698E08487958788E170
:100A8000868789E1878780E4808B128A138A148A9B
:100A9000158A86E2868B178A108E08958F929F9210
:100AA000AF92BF92CF92DF92EF92FF92CF93DF93FC
:100AB000EC01688179818A819B81611571058105CD
:100AC000910521F464E279ED8BE597E02DE133EFB8
:100AD00041E050E00E94F20549015A019B01AC013E
:100AE000A7EAB1E40E9411066B017C01ACEEB4EF01
:100AF000A50194010E941F06C60ED71EE81EF91E0E
:100B0000F7FE06C081E0C81AD108E10880E8F80ABB
:100B1000C882D982EA82FB82C701B6019F77DF9142
:100B2000CF91FF90EF90DF90CF90BF90AF909F90CC
:100B30008F9008958F929F92AF92BF92CF92DF9243
:100B4000EF92FF9260910428709105288091062809
:100B500090910728611571058105910521F464E2E2
:100B600079ED8BE597E02DE133EF41E050E00E9415
:100B7000F20549015A019B01AC01A7EAB1E40E94C8
:100B800011066B017C01ACEEB4EFA50194010E944B
:100B90001F06C60ED71EE81EF91EF7FE06C081E02E
:100BA000C81AD108E10880E8F80AC0920428D09257
:100BB0000528E0920628F0920728C701B6019F7722
:100BC000FF90EF90DF90CF90BF90AF909F908F906D
:100BD00008956093042870930528809306289093C5
:100BE00007280895052E97FB1EF400940E9409061D
:100BF00057FD07D00E94240607FC03D04EF40C9446
:100C0000090650954095309521953F4F4F4F5F4FC6
:100C1000089590958095709561957F4F8F4F9F4F68
:100C200008950E944606A59F900DB49F900DA49F25
:100C3000800D911D11240895B7FF0C9411060E9498
:100C40001106821B930B0895A1E21A2EAA1BBB1B4F
:100C5000FD010DC0AA1FBB1FEE1FFF1FA217B30788
:100C6000E407F50720F0A21BB30BE40BF50B661F9E
:100C7000771F881F991F1A9469F760957095809562
:100C800090959B01AC01BD01CF010895A29FB001D9
:100C9000B39FC001A39F700D811D1124911DB29FB0
:100CA000700D811D1124911D0895AA1BBB1B51E1DC
:100CB00007C0AA1FBB1FA617B70710F0A61BB70BCC
:100CC000881F991F5A95A9F780959095BC01CD0171
:100CD0000895EE0FFF1F0590F491E02D0994F8940C
:020CE000FFCF44
:100CE20000000003000102000001010000000000FA
:100CF20000000000000000000000000000001601DB
:100D0200AA01AC008A009E006701E2023602B80026
:100D1200D7017B000504000506020401030001005F
:100D22000102030201000203040502030504020298
:100D32000005020105000401010404040303030386
:100D420005050303000001012010012040041002E8
:100D52000801020102040804020104081020040828
:100D6200201048656C6C6F20417264754F532100EE
:030D72000D0A0067
:080D75000024F400010000005D
:00000001FF
